:020000020000FC
:0200000012C02C
:02000C00F9C039
:0200140042C1E7
:1000240096C10EE304B900E007B90EE00AB908E08E
:100034000EBF0FEF0DBF04E00093B10002EA00937E
:1000440080000CE10093810003E00093870008EE38
:100054000093860005E00093680010E01093890087
:1000640020E02093880010938B0020938A0000E006
:100074000093C5000FEC0093C40002E20093C0009B
:1000840006E00093C20078943AD0CC272227329B12
:100094002460319B2260309B2160273031F118E1CC
:1000A4001093C10014D01AD0C5FF0EC010E01093F5
:1000B400C100C2FD1CD0C0FD1ED0C1FD31D0C3FDA6
:1000C40040D02FEF04D0E0CF2FE001D0DDCF10914E
:1000D400C00015FFFCCF2093C60008951091C00006
:1000E40015FFFCCFC091C600089528E0D8CF60D09A
:1000F400C4FD5ED0089536D0C4FD34D00895CF93A6
:1001040000E010E020E030E0209389003093880084
:1001140020938B0030938A0005B91BB9CF910895C1
:10012400CF9300E114E023E038E37EEF4FE053D1B6
:1001340000E114E023E038E37EEF4FE04CD1CF91AF
:100144000895CF9308E018E023E038E37EEF4FE012
:1001540042D100E114E023E038E376E54FE03BD1FF
:10016400CF910895CF9308E014E023E037EA7DECC3
:100174004FE031D108E014E023E037EA7DEC4FE0B2
:100184002AD108E014E023E037EA7DEC4FE023D1E4
:1001940008E018E023E038E376E24FE01CD108E001
:1001A40018E023E038E376E24FE015D1CF910895CB
:1001B400CF9300E118E023E037EA7DEC4FE00BD168
:1001C40000E118E023E037EA7DEC4FE004D100E1E0
:1001D40018E023E037EA7DEC4FE0FDD008E018E0BA
:1001E40023E038E376E24FE0F6D008E018E023E0BD
:1001F40038E376E24FE0EFD0CF910895CF93DF93C9
:100204002F93DFB7DF93282F22958F70207F822BC7
:1002140018998260189B8D7FD2E0C0E0288120313C
:1002240051F0283031F0DF91DFBF2F91DF91CF9172
:10023400189503D0F8CF1AD0F6CF803289F08130E8
:1002440079F0823369F0833159F0803139F08133A8
:1002540029F0823019F0833209F008950395FDCF17
:100264000A95FBCFEADF2CC001D02AC0803279F096
:10027400813069F0823359F0833149F0803149F09B
:10028400813339F0823029F0833219F008950395CF
:10029400E4CF0A95E2CFDF93CF932F93DFB7DF93B9
:1002A400D2E0C0E0282F22958F70207F822B4D99B9
:1002B40081604D9B8E7F28812031B1F2283091F2EC
:1002C400292F22959F70207F922B4E9992604E9BEE
:1002D4009D7F4F9991604F9B9E7FC39528812430C9
:1002E40051F0283031F0DF91DFBF2F91CF91DF91B2
:1002F400189503D0F8CF16D0F6CF903279F091301C
:1003040069F0923359F0933149F0903149F09133C7
:1003140039F0923029F0933219F008951395FDCFF6
:100324001A95FBCF903289F0913079F0923369F0CD
:10033400933159F0903139F0913329F0923019F01A
:10034400933209F008951395FDCF1A95FBCFDF93EF
:10035400DFB7DF93F395DF91DFBFDF911895DF936C
:1003640033272D1710F4DF9108952D1B3395F9CF02
:10037400DF937F936F938F931127002731E0E093EE
:100384006B0030EEE0936D003F2FD2E63D0F0F3F40
:10039400A1F01F3FA1F0053FA0F4153FA0F4F7170B
:1003A400A0F4F317A0F3D0E0D0936B00D0936D00CA
:1003B4008F916F917F91DF91089500E0EACF00E083
:1003C400EACF05EFEACF15EFEACF70E070936B0048
:1003D40070936D00EDCF20938900309388002093B3
:1003E4008B0030938A00B1E0A0E520E02C93A39524
:1003F4002C93A3952C93A3952C9305B91BB9D2E008
:10040400C0E00883C395188301E000937000FF27C0
:10041400F093B20000271127EE2788279927B1E02F
:10042400A0E5D2E0C0E0A4DF212F342FEF7755D030
:1004340060938900509388002881E2FD32D025B969
:10044400A395C395212F342FE06847D060938B0088
:1004540050938A002881E6FD32D02BB9F717F8F2C1
:100464004EDE70E070936B0070936D00B1E0A0E518
:10047400D1E0C0E50027009370000C930883C39576
:100484000883A3950C93A3950C93A3950C93112720
:10049400BB27CC2766274427552799278827F7D0D9
:1004A40008957F93DF93CF93BF93203131F020E100
:1004B400BF91CF91DF917F91089528E0F9CF7F9389
:1004C400DF93CF93BF93283031F028E0BF91CF91D1
:1004D400DF917F91089524E0F9CF7F93DF93CF9349
:1004E400BF93CAE052E06FE027D0C39FC02D2C2FEA
:1004F400D52F35DFC32F7C913C93730F753FD0F418
:10050400A3955C912AD0769F702DDAE0272F27DF00
:10051400732F63D05AE0C59F202DD5E020DFC32F71
:1005240054E6C59F502D612DABD0BF91CF91DF9183
:100534007F91089575EFE4CF321738F0321BE7FD51
:1005440002C0EE7F01C0EF7E0895231B322FE7FD2A
:1005540002C0E160F9CFE061F7CFE7FD08C0E7FF33
:1005640002C07C930895E1FD06C0E1FF1DC0E5FDD6
:1005740002C0E5FF19C0E7FF02C0E7FD04C0E0FDCB
:1005840006C0E0FF06C0E4FD02C0E4FF02C0750F30
:10059400E8CF571718F0571B752FE3CF751BE7FFEC
:1005A400ED7FE7FDEF7DDDCFE7FF02C0E7FD04C08F
:1005B400E0FD06C0E0FF0FC0E4FD02C0E4FF0BC095
:1005C400571718F0571B752FCCCF751BE7FFE26048
:1005D400E7FDE062C6CF750FC4CFE7FD2AC0E7FF91
:1005E40001C00895E1FD14C0E1FF01C0FACFE0FDB0
:1005F40006C0E0FF01C0F5CFEB7FC70FF2CFC717EE
:1006040018F0E460C71BEDCFEB7F7C1BC72FE9CF4D
:10061400E0FD03C0E0FF04C0E4CFE460C70FE1CF16
:10062400C71718F0EB7FC71BDCCFE4607C1BC72F18
:10063400D8CFE5FD03C0E5FF12C0D3CFE4FD03C06E
:10064400E4FF04C0CECFE064C70FCBCFC71718F0C8
:10065400EF7BC71BC6CFE0647C1BC72FC2CFE4FD72
:1006640006C0E4FF01C0BDCFEF7BC70FBACFC717E9
:1006740018F0E064C71BB5CFEF7B7C1BC72FB1CF4D
:10068400633020F0583E10F058EE63E00895BF93B5
:10069400CF93DF93B9E0CEE1D5EEDA95F1F7CA95C1
:1006A400E1F7BA95D1F70000DF91CF91BF9108959A
:00000001FF
